{
  "_format": "hh-sol-artifact-1",
  "contractName": "NFT",
  "sourceName": "contracts/NFT.sol",
  "abi": [
    {
      "inputs": [],
      "stateMutability": "nonpayable",
      "type": "constructor"
    },
    {
      "anonymous": false,
      "inputs": [
        {
          "indexed": true,
          "internalType": "address",
          "name": "owner",
          "type": "address"
        },
        {
          "indexed": true,
          "internalType": "address",
          "name": "approved",
          "type": "address"
        },
        {
          "indexed": true,
          "internalType": "uint256",
          "name": "tokenId",
          "type": "uint256"
        }
      ],
      "name": "Approval",
      "type": "event"
    },
    {
      "anonymous": false,
      "inputs": [
        {
          "indexed": true,
          "internalType": "address",
          "name": "owner",
          "type": "address"
        },
        {
          "indexed": true,
          "internalType": "address",
          "name": "operator",
          "type": "address"
        },
        {
          "indexed": false,
          "internalType": "bool",
          "name": "approved",
          "type": "bool"
        }
      ],
      "name": "ApprovalForAll",
      "type": "event"
    },
    {
      "anonymous": false,
      "inputs": [
        {
          "indexed": true,
          "internalType": "address",
          "name": "from",
          "type": "address"
        },
        {
          "indexed": true,
          "internalType": "address",
          "name": "to",
          "type": "address"
        },
        {
          "indexed": true,
          "internalType": "uint256",
          "name": "tokenId",
          "type": "uint256"
        }
      ],
      "name": "Transfer",
      "type": "event"
    },
    {
      "inputs": [
        {
          "internalType": "address",
          "name": "",
          "type": "address"
        }
      ],
      "name": "_changeablePixelsOf",
      "outputs": [
        {
          "internalType": "uint256",
          "name": "",
          "type": "uint256"
        }
      ],
      "stateMutability": "view",
      "type": "function"
    },
    {
      "inputs": [
        {
          "internalType": "address",
          "name": "to",
          "type": "address"
        },
        {
          "internalType": "uint256",
          "name": "tokenId",
          "type": "uint256"
        }
      ],
      "name": "approve",
      "outputs": [],
      "stateMutability": "nonpayable",
      "type": "function"
    },
    {
      "inputs": [
        {
          "internalType": "address",
          "name": "owner",
          "type": "address"
        }
      ],
      "name": "balanceOf",
      "outputs": [
        {
          "internalType": "uint256",
          "name": "",
          "type": "uint256"
        }
      ],
      "stateMutability": "view",
      "type": "function"
    },
    {
      "inputs": [
        {
          "internalType": "uint256",
          "name": "tokenId",
          "type": "uint256"
        },
        {
          "components": [
            {
              "internalType": "uint8",
              "name": "row",
              "type": "uint8"
            },
            {
              "internalType": "uint8",
              "name": "col",
              "type": "uint8"
            },
            {
              "internalType": "uint8",
              "name": "newColor",
              "type": "uint8"
            }
          ],
          "internalType": "struct NFT.ChangePixelPayload",
          "name": "cpp",
          "type": "tuple"
        }
      ],
      "name": "changePixel",
      "outputs": [],
      "stateMutability": "nonpayable",
      "type": "function"
    },
    {
      "inputs": [
        {
          "internalType": "uint256",
          "name": "tokenId",
          "type": "uint256"
        },
        {
          "components": [
            {
              "internalType": "uint8",
              "name": "row",
              "type": "uint8"
            },
            {
              "internalType": "uint8",
              "name": "col",
              "type": "uint8"
            },
            {
              "internalType": "uint8",
              "name": "newColor",
              "type": "uint8"
            }
          ],
          "internalType": "struct NFT.ChangePixelPayload",
          "name": "cpp",
          "type": "tuple"
        }
      ],
      "name": "changePixelTxData",
      "outputs": [
        {
          "internalType": "bytes",
          "name": "",
          "type": "bytes"
        }
      ],
      "stateMutability": "pure",
      "type": "function"
    },
    {
      "inputs": [
        {
          "internalType": "uint256",
          "name": "tokenId",
          "type": "uint256"
        },
        {
          "components": [
            {
              "internalType": "uint8",
              "name": "row",
              "type": "uint8"
            },
            {
              "internalType": "uint8",
              "name": "col",
              "type": "uint8"
            },
            {
              "internalType": "uint8",
              "name": "newColor",
              "type": "uint8"
            }
          ],
          "internalType": "struct NFT.ChangePixelPayload[]",
          "name": "cpps",
          "type": "tuple[]"
        }
      ],
      "name": "changePixels",
      "outputs": [],
      "stateMutability": "nonpayable",
      "type": "function"
    },
    {
      "inputs": [
        {
          "internalType": "uint256",
          "name": "tokenId",
          "type": "uint256"
        },
        {
          "components": [
            {
              "internalType": "uint8",
              "name": "row",
              "type": "uint8"
            },
            {
              "internalType": "uint8",
              "name": "col",
              "type": "uint8"
            },
            {
              "internalType": "uint8",
              "name": "newColor",
              "type": "uint8"
            }
          ],
          "internalType": "struct NFT.ChangePixelPayload[]",
          "name": "cpps",
          "type": "tuple[]"
        }
      ],
      "name": "changePixelsTxData",
      "outputs": [
        {
          "internalType": "bytes",
          "name": "",
          "type": "bytes"
        }
      ],
      "stateMutability": "pure",
      "type": "function"
    },
    {
      "inputs": [
        {
          "internalType": "uint256",
          "name": "tokenId",
          "type": "uint256"
        }
      ],
      "name": "getApproved",
      "outputs": [
        {
          "internalType": "address",
          "name": "",
          "type": "address"
        }
      ],
      "stateMutability": "view",
      "type": "function"
    },
    {
      "inputs": [
        {
          "internalType": "address",
          "name": "user",
          "type": "address"
        }
      ],
      "name": "getChangeablePixelsOf",
      "outputs": [
        {
          "internalType": "uint256",
          "name": "",
          "type": "uint256"
        }
      ],
      "stateMutability": "view",
      "type": "function"
    },
    {
      "inputs": [
        {
          "internalType": "address",
          "name": "owner",
          "type": "address"
        },
        {
          "internalType": "address",
          "name": "operator",
          "type": "address"
        }
      ],
      "name": "isApprovedForAll",
      "outputs": [
        {
          "internalType": "bool",
          "name": "",
          "type": "bool"
        }
      ],
      "stateMutability": "view",
      "type": "function"
    },
    {
      "inputs": [],
      "name": "lastTokenID",
      "outputs": [
        {
          "internalType": "uint256",
          "name": "_value",
          "type": "uint256"
        }
      ],
      "stateMutability": "view",
      "type": "function"
    },
    {
      "inputs": [],
      "name": "mint",
      "outputs": [],
      "stateMutability": "nonpayable",
      "type": "function"
    },
    {
      "inputs": [],
      "name": "name",
      "outputs": [
        {
          "internalType": "string",
          "name": "",
          "type": "string"
        }
      ],
      "stateMutability": "view",
      "type": "function"
    },
    {
      "inputs": [
        {
          "internalType": "uint256",
          "name": "tokenId",
          "type": "uint256"
        }
      ],
      "name": "ownerOf",
      "outputs": [
        {
          "internalType": "address",
          "name": "",
          "type": "address"
        }
      ],
      "stateMutability": "view",
      "type": "function"
    },
    {
      "inputs": [
        {
          "internalType": "address",
          "name": "from",
          "type": "address"
        },
        {
          "internalType": "address",
          "name": "to",
          "type": "address"
        },
        {
          "internalType": "uint256",
          "name": "tokenId",
          "type": "uint256"
        }
      ],
      "name": "safeTransferFrom",
      "outputs": [],
      "stateMutability": "nonpayable",
      "type": "function"
    },
    {
      "inputs": [
        {
          "internalType": "address",
          "name": "from",
          "type": "address"
        },
        {
          "internalType": "address",
          "name": "to",
          "type": "address"
        },
        {
          "internalType": "uint256",
          "name": "tokenId",
          "type": "uint256"
        },
        {
          "internalType": "bytes",
          "name": "data",
          "type": "bytes"
        }
      ],
      "name": "safeTransferFrom",
      "outputs": [],
      "stateMutability": "nonpayable",
      "type": "function"
    },
    {
      "inputs": [
        {
          "internalType": "address",
          "name": "operator",
          "type": "address"
        },
        {
          "internalType": "bool",
          "name": "approved",
          "type": "bool"
        }
      ],
      "name": "setApprovalForAll",
      "outputs": [],
      "stateMutability": "nonpayable",
      "type": "function"
    },
    {
      "inputs": [
        {
          "internalType": "bytes4",
          "name": "interfaceId",
          "type": "bytes4"
        }
      ],
      "name": "supportsInterface",
      "outputs": [
        {
          "internalType": "bool",
          "name": "",
          "type": "bool"
        }
      ],
      "stateMutability": "view",
      "type": "function"
    },
    {
      "inputs": [],
      "name": "symbol",
      "outputs": [
        {
          "internalType": "string",
          "name": "",
          "type": "string"
        }
      ],
      "stateMutability": "view",
      "type": "function"
    },
    {
      "inputs": [
        {
          "internalType": "uint256",
          "name": "tokenId",
          "type": "uint256"
        }
      ],
      "name": "tokenData",
      "outputs": [
        {
          "internalType": "uint8[8][8]",
          "name": "",
          "type": "uint8[8][8]"
        }
      ],
      "stateMutability": "view",
      "type": "function"
    },
    {
      "inputs": [],
      "name": "tokenPixelSize",
      "outputs": [
        {
          "internalType": "uint8",
          "name": "",
          "type": "uint8"
        }
      ],
      "stateMutability": "pure",
      "type": "function"
    },
    {
      "inputs": [
        {
          "internalType": "uint256",
          "name": "tokenID",
          "type": "uint256"
        }
      ],
      "name": "tokenSVG",
      "outputs": [
        {
          "internalType": "string",
          "name": "",
          "type": "string"
        }
      ],
      "stateMutability": "view",
      "type": "function"
    },
    {
      "inputs": [
        {
          "internalType": "uint256",
          "name": "tokenID",
          "type": "uint256"
        }
      ],
      "name": "tokenURI",
      "outputs": [
        {
          "internalType": "string",
          "name": "",
          "type": "string"
        }
      ],
      "stateMutability": "view",
      "type": "function"
    },
    {
      "inputs": [
        {
          "internalType": "address",
          "name": "user",
          "type": "address"
        }
      ],
      "name": "tokensOf",
      "outputs": [
        {
          "internalType": "uint256[]",
          "name": "",
          "type": "uint256[]"
        }
      ],
      "stateMutability": "view",
      "type": "function"
    },
    {
      "inputs": [
        {
          "internalType": "address",
          "name": "from",
          "type": "address"
        },
        {
          "internalType": "address",
          "name": "to",
          "type": "address"
        },
        {
          "internalType": "uint256",
          "name": "tokenId",
          "type": "uint256"
        }
      ],
      "name": "transferFrom",
      "outputs": [],
      "stateMutability": "nonpayable",
      "type": "function"
    }
  ],
  "bytecode": "0x60806040523480156200001157600080fd5b50604051806040016040528060088152602001674e46542047616d6560c01b815250604051806040016040528060048152602001634e46544760e01b81525081600090816200006191906200011e565b5060016200007082826200011e565b505050620001ea565b634e487b7160e01b600052604160045260246000fd5b600181811c90821680620000a457607f821691505b602082108103620000c557634e487b7160e01b600052602260045260246000fd5b50919050565b601f8211156200011957600081815260208120601f850160051c81016020861015620000f45750805b601f850160051c820191505b81811015620001155782815560010162000100565b5050505b505050565b81516001600160401b038111156200013a576200013a62000079565b62000152816200014b84546200008f565b84620000cb565b602080601f8311600181146200018a5760008415620001715750858301515b600019600386901b1c1916600185901b17855562000115565b600085815260208120601f198616915b82811015620001bb578886015182559484019460019091019084016200019a565b5085821015620001da5787850151600019600388901b60f8161c191681555b5050505050600190811b01905550565b6124e380620001fa6000396000f3fe608060405234801561001057600080fd5b50600436106101735760003560e01c80635a3f2672116100de578063a22cb46511610097578063c87b56dd11610071578063c87b56dd1461034a578063d05055671461035d578063e985e9c514610370578063ee14e276146103ac57600080fd5b8063a22cb46514610304578063b4b5b48f14610317578063b88d4fde1461033757600080fd5b80635a3f2672146102905780636352211e146102b057806370a08231146102c35780637d425e78146102d657806395d89b41146102e95780639bac5f7a146102f157600080fd5b806331a625331161013057806331a625331461021057806332552b6f1461021f5780633521bd7e1461023257806342842e0e1461024a5780634cbed0811461025d5780635021b1e31461027d57600080fd5b806301ffc9a71461017857806306fdde03146101a0578063081812fc146101b5578063095ea7b3146101e05780631249c58b146101f557806323b872dd146101fd575b600080fd5b61018b610186366004611868565b6103d5565b60405190151581526020015b60405180910390f35b6101a8610427565b60405161019791906118dc565b6101c86101c33660046118ef565b6104b9565b6040516001600160a01b039091168152602001610197565b6101f36101ee366004611924565b6104e0565b005b6101f36105fa565b6101f361020b36600461194e565b610665565b60405160088152602001610197565b6101a861022d366004611a51565b610696565b60065461023c9081565b604051908152602001610197565b6101f361025836600461194e565b6106c2565b61023c61026b366004611a7e565b60096020526000908152604090205481565b6101f361028b366004611a51565b6106dd565b6102a361029e366004611a7e565b6106fb565b6040516101979190611a99565b6101c86102be3660046118ef565b610767565b61023c6102d1366004611a7e565b6107c7565b6101a86102e4366004611add565b61084d565b6101a8610862565b6101a86102ff3660046118ef565b610871565b6101f3610312366004611b99565b6108e4565b61032a6103253660046118ef565b6108ef565b6040516101979190611bd5565b6101f3610345366004611c3a565b610986565b6101a86103583660046118ef565b6109be565b6101f361036b366004611add565b610a0f565b61018b61037e366004611cfa565b6001600160a01b03918216600090815260056020908152604080832093909416825291909152205460ff1690565b61023c6103ba366004611a7e565b6001600160a01b031660009081526009602052604090205490565b60006001600160e01b031982166380ac58cd60e01b148061040657506001600160e01b03198216635b5e139f60e01b145b8061042157506301ffc9a760e01b6001600160e01b03198316145b92915050565b60606000805461043690611d24565b80601f016020809104026020016040519081016040528092919081815260200182805461046290611d24565b80156104af5780601f10610484576101008083540402835291602001916104af565b820191906000526020600020905b81548152906001019060200180831161049257829003601f168201915b5050505050905090565b60006104c482610a64565b506000908152600460205260409020546001600160a01b031690565b60006104eb82610767565b9050806001600160a01b0316836001600160a01b03160361055d5760405162461bcd60e51b815260206004820152602160248201527f4552433732313a20617070726f76616c20746f2063757272656e74206f776e656044820152603960f91b60648201526084015b60405180910390fd5b336001600160a01b03821614806105795750610579813361037e565b6105eb5760405162461bcd60e51b815260206004820152603e60248201527f4552433732313a20617070726f76652063616c6c6572206973206e6f7420746f60448201527f6b656e206f776e6572206e6f7220617070726f76656420666f7220616c6c00006064820152608401610554565b6105f58383610ac6565b505050565b33600061060660065490565b90506106128282610b34565b61061b81610b4e565b6001600160a01b0382166000908152600860208181526040832080546001810182559084529220909101829055610653908390610c8b565b610661600680546001019055565b5050565b61066f3382610cbc565b61068b5760405162461bcd60e51b815260040161055490611d5e565b6105f5838383610d3b565b606082826040516020016106ab929190611dac565b604051602081830303815290604052905092915050565b6105f583838360405180602001604052806000815250610986565b6106e682610ed7565b6106f1336001610f40565b6106618282610fa8565b6001600160a01b03811660009081526008602090815260409182902080548351818402810184019094528084526060939283018282801561075b57602002820191906000526020600020905b815481526020019060010190808311610747575b50505050509050919050565b6000818152600260205260408120546001600160a01b0316806104215760405162461bcd60e51b8152602060048201526018602482015277115490cdcc8c4e881a5b9d985b1a59081d1bdad95b88125160421b6044820152606401610554565b60006001600160a01b0382166108315760405162461bcd60e51b815260206004820152602960248201527f4552433732313a2061646472657373207a65726f206973206e6f7420612076616044820152683634b21037bbb732b960b91b6064820152608401610554565b506001600160a01b031660009081526003602052604090205490565b606082826040516020016106ab929190611de0565b60606001805461043690611d24565b6060600061087e82611015565b6108886060611015565b61089185611116565b6040516020016108a393929190611e73565b60405160208183030381529060405290506108bd8161125d565b6040516020016108cd9190611f6a565b604051602081830303815290604052915050919050565b6106613383836113b0565b6108f7611805565b600082815260076020526040808220815161010081019092529091600890835b8282101561097b57604080516101008101918290529085840190600890826000855b825461010083900a900460ff16815260206001928301818104948501949093039092029101808411610939579050505050505081526020019060010190610917565b505050509050919050565b6109903383610cbc565b6109ac5760405162461bcd60e51b815260040161055490611d5e565b6109b88484848461147e565b50505050565b606060006109cb83611015565b6109d484610871565b6040516020016109e5929190611faf565b60405160208183030381529060405290506109ff8161125d565b6040516020016108cd9190612067565b610a1882610ed7565b610a23338251610f40565b60005b81518110156105f557610a5283838381518110610a4557610a456120ac565b6020026020010151610fa8565b80610a5c816120d8565b915050610a26565b6000818152600260205260409020546001600160a01b0316610ac35760405162461bcd60e51b8152602060048201526018602482015277115490cdcc8c4e881a5b9d985b1a59081d1bdad95b88125160421b6044820152606401610554565b50565b600081815260046020526040902080546001600160a01b0319166001600160a01b0384169081179091558190610afb82610767565b6001600160a01b03167f8c5be1e5ebec7d5bd14f71427d1e84f3dd0314c0f7b2291e5b200ac8c7c3b92560405160405180910390a45050565b6106618282604051806020016040528060008152506114b1565b6040805142602080830191909152825180830382018152828401845280519082012043606080850191909152845180850390910181526080909301909352815191012060005b600860ff821610156109b85760005b600860ff82161015610c7857610bce8482610bbf6008866120f1565b610bc9919061210d565b6114e4565b15610c66576000610100610be383600161210d565b610bee85600161210d565b610bf891906120f1565b60ff1685901c610c08919061213c565b6000878152600760205260409020909150819060ff841660088110610c2f57610c2f6120ac565b018460ff1660088110610c4457610c446120ac565b602091828204019190066101000a81548160ff021916908360ff160217905550505b80610c7081612150565b915050610ba3565b5080610c8381612150565b915050610b94565b6001600160a01b03821660009081526009602052604081208054839290610cb390849061216f565b90915550505050565b600080610cc883610767565b9050806001600160a01b0316846001600160a01b03161480610d0f57506001600160a01b0380821660009081526005602090815260408083209388168352929052205460ff165b80610d335750836001600160a01b0316610d28846104b9565b6001600160a01b0316145b949350505050565b826001600160a01b0316610d4e82610767565b6001600160a01b031614610db25760405162461bcd60e51b815260206004820152602560248201527f4552433732313a207472616e736665722066726f6d20696e636f72726563742060448201526437bbb732b960d91b6064820152608401610554565b6001600160a01b038216610e145760405162461bcd60e51b8152602060048201526024808201527f4552433732313a207472616e7366657220746f20746865207a65726f206164646044820152637265737360e01b6064820152608401610554565b610e1f600082610ac6565b6001600160a01b0383166000908152600360205260408120805460019290610e48908490612182565b90915550506001600160a01b0382166000908152600360205260408120805460019290610e7690849061216f565b909155505060008181526002602052604080822080546001600160a01b0319166001600160a01b0386811691821790925591518493918716917fddf252ad1be2c89b69c2b068fc378daa952ba7f163c4a11628f55a4df523b3ef91a4505050565b610ee081610767565b6001600160a01b0316336001600160a01b031614610ac35760405162461bcd60e51b815260206004820152601960248201527f43616c6c6572206973206e6f7420746f6b656e206f776e6572000000000000006044820152606401610554565b6001600160a01b0382166000908152600960205260409020548111156106615760405162461bcd60e51b815260206004820152601c60248201527f4e6f7420656e6f756768206368616e676561626c6520706978656c73000000006044820152606401610554565b806040015160076000848152602001908152602001600020826020015160ff1660088110610fd857610fd86120ac565b01826000015160ff1660088110610ff157610ff16120ac565b602091828204019190066101000a81548160ff021916908360ff1602179055505050565b60608160000361103c5750506040805180820190915260018152600360fc1b602082015290565b8160005b81156110665780611050816120d8565b915061105f9050600a83612195565b9150611040565b60008167ffffffffffffffff8111156110815761108161198a565b6040519080825280601f01601f1916602001820160405280156110ab576020820181803683370190505b5090505b8415610d33576110c0600183612182565b91506110cd600a8661213c565b6110d890603061216f565b60f81b8183815181106110ed576110ed6120ac565b60200101906001600160f81b031916908160001a90535061110f600a86612195565b94506110af565b60608060005b600860ff8216101561125657606060005b600860ff8216101561121d576000611146600c856120f1565b60ff1690506000611158600c846120f1565b60ff1690508361116b8361ffff16611015565b6111788361ffff16611015565b611182600c611015565b61118c600c611015565b60008d81526007602052604090206111e29060ff8a16600881106111b2576111b26120ac565b018b60ff16600881106111c7576111c76120ac565b602081049091015460ff601f9092166101000a900416611501565b6040516020016111f7969594939291906121a9565b60405160208183030381529060405293505050808061121590612150565b91505061112d565b5082816040516020016112319291906122bc565b604051602081830303815290604052925050808061124e90612150565b91505061111c565b5092915050565b6060815160000361127c57505060408051602081019091526000815290565b600060405180606001604052806040815260200161246e60409139905060006003845160026112ab919061216f565b6112b59190612195565b6112c09060046122eb565b67ffffffffffffffff8111156112d8576112d861198a565b6040519080825280601f01601f191660200182016040528015611302576020820181803683370190505b509050600182016020820185865187015b8082101561136e576003820191508151603f8160121c168501518453600184019350603f81600c1c168501518453600184019350603f8160061c168501518453600184019350603f8116850151845350600183019250611313565b505060038651066001811461138a576002811461139d576113a5565b603d6001830353603d60028303536113a5565b603d60018303535b509195945050505050565b816001600160a01b0316836001600160a01b0316036114115760405162461bcd60e51b815260206004820152601960248201527f4552433732313a20617070726f766520746f2063616c6c6572000000000000006044820152606401610554565b6001600160a01b03838116600081815260056020908152604080832094871680845294825291829020805460ff191686151590811790915591519182527f17307eab39ab6107e8899845ad3d59bd9653f200f220920489ca2b5937696c31910160405180910390a3505050565b611489848484610d3b565b611495848484846115c2565b6109b85760405162461bcd60e51b815260040161055490612302565b6114bb83836116c3565b6114c860008484846115c2565b6105f55760405162461bcd60e51b815260040161055490612302565b60006114f7600260ff841685901c61213c565b6001149392505050565b60606007600583901c811690600284901c81169060038516906000906115288560ff612354565b611532919061237a565b90506000600761154660ff80871690612354565b611550919061237a565b90506000600361156460ff80871690612354565b61156e919061237a565b905061157c8360ff16611015565b6115888360ff16611015565b6115948360ff16611015565b6040516020016115a69392919061239b565b6040516020818303038152906040529650505050505050919050565b60006001600160a01b0384163b156116b857604051630a85bd0160e11b81526001600160a01b0385169063150b7a0290611606903390899088908890600401612413565b6020604051808303816000875af1925050508015611641575060408051601f3d908101601f1916820190925261163e91810190612450565b60015b61169e573d80801561166f576040519150601f19603f3d011682016040523d82523d6000602084013e611674565b606091505b5080516000036116965760405162461bcd60e51b815260040161055490612302565b805181602001fd5b6001600160e01b031916630a85bd0160e11b149050610d33565b506001949350505050565b6001600160a01b0382166117195760405162461bcd60e51b815260206004820181905260248201527f4552433732313a206d696e7420746f20746865207a65726f20616464726573736044820152606401610554565b6000818152600260205260409020546001600160a01b03161561177e5760405162461bcd60e51b815260206004820152601c60248201527f4552433732313a20746f6b656e20616c7265616479206d696e746564000000006044820152606401610554565b6001600160a01b03821660009081526003602052604081208054600192906117a790849061216f565b909155505060008181526002602052604080822080546001600160a01b0319166001600160a01b03861690811790915590518392907fddf252ad1be2c89b69c2b068fc378daa952ba7f163c4a11628f55a4df523b3ef908290a45050565b6040518061010001604052806008905b61181d611833565b8152602001906001900390816118155790505090565b6040518061010001604052806008906020820280368337509192915050565b6001600160e01b031981168114610ac357600080fd5b60006020828403121561187a57600080fd5b813561188581611852565b9392505050565b60005b838110156118a757818101518382015260200161188f565b50506000910152565b600081518084526118c881602086016020860161188c565b601f01601f19169290920160200192915050565b60208152600061188560208301846118b0565b60006020828403121561190157600080fd5b5035919050565b80356001600160a01b038116811461191f57600080fd5b919050565b6000806040838503121561193757600080fd5b61194083611908565b946020939093013593505050565b60008060006060848603121561196357600080fd5b61196c84611908565b925061197a60208501611908565b9150604084013590509250925092565b634e487b7160e01b600052604160045260246000fd5b604051601f8201601f1916810167ffffffffffffffff811182821017156119c9576119c961198a565b604052919050565b803560ff8116811461191f57600080fd5b6000606082840312156119f457600080fd5b6040516060810181811067ffffffffffffffff82111715611a1757611a1761198a565b604052905080611a26836119d1565b8152611a34602084016119d1565b6020820152611a45604084016119d1565b60408201525092915050565b60008060808385031215611a6457600080fd5b82359150611a7584602085016119e2565b90509250929050565b600060208284031215611a9057600080fd5b61188582611908565b6020808252825182820181905260009190848201906040850190845b81811015611ad157835183529284019291840191600101611ab5565b50909695505050505050565b60008060408385031215611af057600080fd5b8235915060208084013567ffffffffffffffff80821115611b1057600080fd5b818601915086601f830112611b2457600080fd5b813581811115611b3657611b3661198a565b611b44848260051b016119a0565b81815284810192506060918202840185019189831115611b6357600080fd5b938501935b82851015611b8957611b7a8a866119e2565b84529384019392850192611b68565b5080955050505050509250929050565b60008060408385031215611bac57600080fd5b611bb583611908565b915060208301358015158114611bca57600080fd5b809150509250929050565b610800810181836000805b6008808210611bef5750611c30565b835185845b83811015611c1557825160ff16825260209283019290910190600101611bf4565b50505061010094909401935060209290920191600101611be0565b5050505092915050565b60008060008060808587031215611c5057600080fd5b611c5985611908565b93506020611c68818701611908565b935060408601359250606086013567ffffffffffffffff80821115611c8c57600080fd5b818801915088601f830112611ca057600080fd5b813581811115611cb257611cb261198a565b611cc4601f8201601f191685016119a0565b91508082528984828501011115611cda57600080fd5b808484018584013760008482840101525080935050505092959194509250565b60008060408385031215611d0d57600080fd5b611d1683611908565b9150611a7560208401611908565b600181811c90821680611d3857607f821691505b602082108103611d5857634e487b7160e01b600052602260045260246000fd5b50919050565b6020808252602e908201527f4552433732313a2063616c6c6572206973206e6f7420746f6b656e206f776e6560408201526d1c881b9bdc88185c1c1c9bdd995960921b606082015260800190565b82815260808101611885602083018460ff815116825260ff602082015116602083015260ff60408201511660408301525050565b600060408201848352602060408185015281855180845260609350838601915082870160005b82811015611e4957611e3984835160ff815116825260ff602082015116602083015260ff60408201511660408301525050565b9285019290840190600101611e06565b509198975050505050505050565b60008151611e6981856020860161188c565b9290920192915050565b6401e39bb33960dd1b81527f786d6c6e733d22687474703a2f2f7777772e77332e6f72672f323030302f737660058201527f6722207072657365727665417370656374526174696f3d22784d696e594d696e60258201526601036b2b2ba11160cd1b60458201526c03b34b2bba137bc1e911810181609d1b604c8201528351600090611f0681605985016020890161188c565b600160fd1b6059918401918201528451611f2781605a84016020890161188c565b61111f60f11b605a92909101918201528351611f4a81605c84016020880161188c565b651e17b9bb339f60d11b605c929091019182015260620195945050505050565b7f646174613a696d6167652f7376672b786d6c3b6261736536342c000000000000815260008251611fa281601a85016020870161188c565b91909101601a0192915050565b607b60f81b815272226e616d65223a202247616d65204e4654202360681b60018201528251600090611fe881601485016020880161188c565b61088b60f21b6014918401918201527f226465736372697074696f6e223a2022506978656c204e4654222c00000000006016820152691134b6b0b3b2911d101160b11b6031820152835161204381603b84016020880161188c565b601160f91b603b9290910191820152607d60f81b603c820152603d01949350505050565b7f646174613a6170706c69636174696f6e2f6a736f6e3b6261736536342c00000081526000825161209f81601d85016020870161188c565b91909101601d0192915050565b634e487b7160e01b600052603260045260246000fd5b634e487b7160e01b600052601160045260246000fd5b6000600182016120ea576120ea6120c2565b5060010190565b60ff8181168382160290811690818114611256576112566120c2565b60ff8181168382160190811115610421576104216120c2565b634e487b7160e01b600052601260045260246000fd5b60008261214b5761214b612126565b500690565b600060ff821660ff8103612166576121666120c2565b60010192915050565b80820180821115610421576104216120c2565b81810381811115610421576104216120c2565b6000826121a4576121a4612126565b500490565b600087516121bb818460208c0161188c565b6501e3932b1ba160d51b908301908152623c1e9160e91b600682015287516121ea816009840160208c0161188c565b6411103c9e9160d91b60099290910191820152865161221081600e840160208b0161188c565b61011160f51b600e9290910191820152663bb4b23a341e9160c91b60108201528551612243816017840160208a0161188c565b6122ae6122a061227a61229a61228861227a6122746017888a01016911103432b4b3b43a1e9160b11b8152600a0190565b8c611e57565b61011160f51b815260020190565b653334b6361e9160d11b815260060190565b88611e57565b61179f60f11b815260020190565b9a9950505050505050505050565b600083516122ce81846020880161188c565b8351908301906122e281836020880161188c565b01949350505050565b8082028115828204841417610421576104216120c2565b60208082526032908201527f4552433732313a207472616e7366657220746f206e6f6e20455243373231526560408201527131b2b4bb32b91034b6b83632b6b2b73a32b960711b606082015260800190565b61ffff818116838216028082169190828114612372576123726120c2565b505092915050565b600061ffff8084168061238f5761238f612126565b92169190910492915050565b630e4cec4560e31b8152600084516123ba81600485016020890161188c565b8083019050600b60fa1b80600483015285516123dd816005850160208a0161188c565b600592019182015283516123f881600684016020880161188c565b602960f81b6006929091019182015260070195945050505050565b6001600160a01b0385811682528416602082015260408101839052608060608201819052600090612446908301846118b0565b9695505050505050565b60006020828403121561246257600080fd5b81516118858161185256fe4142434445464748494a4b4c4d4e4f505152535455565758595a6162636465666768696a6b6c6d6e6f707172737475767778797a303132333435363738392b2fa26469706673582212205c1ed5dfc86284453883dfd80a7569f72b93b4f007d6f544c133c99aeccc674264736f6c63430008110033",
  "linkReferences": {},
  "deployedLinkReferences": {}
}